{
  "address": "0x5FbDB2315678afecb367f032d93F642f64180aa3",
  "abi": [
    {
      "inputs": [],
      "stateMutability": "nonpayable",
      "type": "constructor"
    },
    {
      "inputs": [],
      "name": "USER_EXISTS",
      "type": "error"
    },
    {
      "inputs": [],
      "name": "USER_NOT_EXISTS",
      "type": "error"
    },
    {
      "anonymous": false,
      "inputs": [
        {
          "indexed": false,
          "internalType": "address",
          "name": "",
          "type": "address"
        },
        {
          "indexed": false,
          "internalType": "string",
          "name": "",
          "type": "string"
        }
      ],
      "name": "ProfileCreated",
      "type": "event"
    },
    {
      "inputs": [
        {
          "internalType": "address",
          "name": "caller",
          "type": "address"
        },
        {
          "internalType": "string",
          "name": "hashID",
          "type": "string"
        }
      ],
      "name": "createProfile",
      "outputs": [],
      "stateMutability": "nonpayable",
      "type": "function"
    },
    {
      "inputs": [
        {
          "internalType": "address",
          "name": "caller",
          "type": "address"
        }
      ],
      "name": "getUserId",
      "outputs": [
        {
          "internalType": "string",
          "name": "",
          "type": "string"
        }
      ],
      "stateMutability": "view",
      "type": "function"
    }
  ],
  "transactionHash": "0xa91304c146fb4ccd5d0ef01fd3fc30e1762000dce22b3a7baca430efb6ba0db8",
  "args": [],
  "numDeployments": 1,
  "solcInputHash": "442ba75e015610e0056d0ab1bb18d450",
  "bytecode": "0x608060405234801561001057600080fd5b5033600160006101000a81548173ffffffffffffffffffffffffffffffffffffffff021916908373ffffffffffffffffffffffffffffffffffffffff160217905550610934806100616000396000f3fe608060405234801561001057600080fd5b50600436106100365760003560e01c80632b956ff71461003b5780637765eba11461006b575b600080fd5b61005560048036038101906100509190610486565b610087565b604051610062919061054c565b60405180910390f35b610085600480360381019061008091906106a3565b61021a565b005b60608160405160200161009990610756565b604051602081830303815290604052805190602001206000808373ffffffffffffffffffffffffffffffffffffffff1673ffffffffffffffffffffffffffffffffffffffff1681526020019081526020016000206040516020016100fd9190610860565b60405160208183030381529060405280519060200120141561014b576040517f551b5fec00000000000000000000000000000000000000000000000000000000815260040160405180910390fd5b6000808473ffffffffffffffffffffffffffffffffffffffff1673ffffffffffffffffffffffffffffffffffffffff16815260200190815260200160002080546101949061079a565b80601f01602080910402602001604051908101604052809291908181526020018280546101c09061079a565b801561020d5780601f106101e25761010080835404028352916020019161020d565b820191906000526020600020905b8154815290600101906020018083116101f057829003601f168201915b5050505050915050919050565b81818060405160200161022d91906108a8565b604051602081830303815290604052805190602001206000808473ffffffffffffffffffffffffffffffffffffffff1673ffffffffffffffffffffffffffffffffffffffff1681526020019081526020016000206040516020016102919190610860565b6040516020818303038152906040528051906020012014156102df576040517f74c16f6400000000000000000000000000000000000000000000000000000000815260040160405180910390fd5b826000808673ffffffffffffffffffffffffffffffffffffffff1673ffffffffffffffffffffffffffffffffffffffff1681526020019081526020016000209080519060200190610331929190610371565b507fbafddecbd1dec1c1afb76d693f1de16901f521bdf29a02438e3e6806c0b8d94884846040516103639291906108ce565b60405180910390a150505050565b82805461037d9061079a565b90600052602060002090601f01602090048101928261039f57600085556103e6565b82601f106103b857805160ff19168380011785556103e6565b828001600101855582156103e6579182015b828111156103e55782518255916020019190600101906103ca565b5b5090506103f391906103f7565b5090565b5b808211156104105760008160009055506001016103f8565b5090565b6000604051905090565b600080fd5b600080fd5b600073ffffffffffffffffffffffffffffffffffffffff82169050919050565b600061045382610428565b9050919050565b61046381610448565b811461046e57600080fd5b50565b6000813590506104808161045a565b92915050565b60006020828403121561049c5761049b61041e565b5b60006104aa84828501610471565b91505092915050565b600081519050919050565b600082825260208201905092915050565b60005b838110156104ed5780820151818401526020810190506104d2565b838111156104fc576000848401525b50505050565b6000601f19601f8301169050919050565b600061051e826104b3565b61052881856104be565b93506105388185602086016104cf565b61054181610502565b840191505092915050565b600060208201905081810360008301526105668184610513565b905092915050565b600080fd5b600080fd5b7f4e487b7100000000000000000000000000000000000000000000000000000000600052604160045260246000fd5b6105b082610502565b810181811067ffffffffffffffff821117156105cf576105ce610578565b5b80604052505050565b60006105e2610414565b90506105ee82826105a7565b919050565b600067ffffffffffffffff82111561060e5761060d610578565b5b61061782610502565b9050602081019050919050565b82818337600083830152505050565b6000610646610641846105f3565b6105d8565b90508281526020810184848401111561066257610661610573565b5b61066d848285610624565b509392505050565b600082601f83011261068a5761068961056e565b5b813561069a848260208601610633565b91505092915050565b600080604083850312156106ba576106b961041e565b5b60006106c885828601610471565b925050602083013567ffffffffffffffff8111156106e9576106e8610423565b5b6106f585828601610675565b9150509250929050565b600081905092915050565b7f3000000000000000000000000000000000000000000000000000000000000000600082015250565b60006107406001836106ff565b915061074b8261070a565b600182019050919050565b600061076182610733565b9150819050919050565b7f4e487b7100000000000000000000000000000000000000000000000000000000600052602260045260246000fd5b600060028204905060018216806107b257607f821691505b602082108114156107c6576107c561076b565b5b50919050565b60008190508160005260206000209050919050565b600081546107ee8161079a565b6107f881866106ff565b94506001821660008114610813576001811461082457610857565b60ff19831686528186019350610857565b61082d856107cc565b60005b8381101561084f57815481890152600182019150602081019050610830565b838801955050505b50505092915050565b600061086c82846107e1565b915081905092915050565b6000610882826104b3565b61088c81856106ff565b935061089c8185602086016104cf565b80840191505092915050565b60006108b48284610877565b915081905092915050565b6108c881610448565b82525050565b60006040820190506108e360008301856108bf565b81810360208301526108f58184610513565b9050939250505056fea26469706673582212208c9d69aa3210f9e7dfa6a724f6214bbbeb7579b6efa8314f5788de8aa2a726e764736f6c63430008090033",
  "devdoc": {
    "kind": "dev",
    "methods": {},
    "version": 1
  },
  "userdoc": {
    "kind": "user",
    "methods": {},
    "version": 1
  },
  "storageLayout": {
    "storage": [
      {
        "astId": 9,
        "contract": "contracts/Profiles.sol:Profiles",
        "label": "s_userId",
        "offset": 0,
        "slot": "0",
        "type": "t_mapping(t_address,t_string_storage)"
      },
      {
        "astId": 11,
        "contract": "contracts/Profiles.sol:Profiles",
        "label": "s_userAdmin",
        "offset": 0,
        "slot": "1",
        "type": "t_address"
      }
    ],
    "types": {
      "t_address": {
        "encoding": "inplace",
        "label": "address",
        "numberOfBytes": "20"
      },
      "t_mapping(t_address,t_string_storage)": {
        "encoding": "mapping",
        "key": "t_address",
        "label": "mapping(address => string)",
        "numberOfBytes": "32",
        "value": "t_string_storage"
      },
      "t_string_storage": {
        "encoding": "bytes",
        "label": "string",
        "numberOfBytes": "32"
      }
    }
  }
}